:100000000C942A000C9447000C9447000C94470071
:100010000C9447000C9447000C9447000C94470044
:100020000C9447000C9447000C9447000C94470034
:100030000C9447000C9447000C9447000C94470024
:100040000C9447000C9447000C9447000C94470014
:100050000C94470011241FBECFE5D4E0DEBFCDBF16
:1000600010E0A0E6B0E0E8E2F7E002C005900D92F3
:10007000A436B107D9F720E0A4E6B0E001C01D9294
:10008000A437B207E1F70E9449000C9492030C9444
:100090000000CF93DF93CDB7DEB72E970FB6F8945D
:1000A000DEBF0FBECDBF87E390E02FEFFC012083C2
:1000B00043E068E480E00E94D80062E380E00E94B0
:1000C000090261E080E00E94930180E090E0A8ECEA
:1000D000B2E489839A83AB83BC8320E030E04AE7B3
:1000E00055E469817A818B819C810E94F802DC0150
:1000F000CB018D839E83AF83B88720E030E040E85A
:100100005FE36D817E818F8198850E9477028823CD
:100110002CF481E090E09A8789873FC020E03FEF90
:100120004FE757E46D817E818F8198850E94F402AC
:1001300018164CF520E030E040E251E469817A8104
:100140008B819C810E94F802DC01CB01BC01CD01B6
:100150000E947B02DC01CB019A8789870FC080E96E
:1001600091E09C878B878B859C850197F1F79C8715
:100170008B8789859A8501979A87898789859A854A
:10018000009769F7A2CF6D817E818F8198850E944B
:100190007B02DC01CB019A87898789859A859E87B6
:1001A0008D878D859E850197F1F79E878D878DCFF1
:1001B000CF93DF9300D01F92CDB7DEB789836A83D8
:1001C0004B8389810E943E0289810E94FF006A81DF
:1001D00089810E946E016B8189810E94DB0183E528
:1001E00090E023E530E0F90120812062FC012083CA
:1001F00000000F900F900F90DF91CF910895CF9353
:10020000DF931F92CDB7DEB789838981882F90E075
:10021000009721F081309105D1F032C083E590E064
:10022000909365008093640082E590E0909367006E
:10023000809366008CE590E090936900809368005D
:1002400087E390E090936B0080936A0019C085E487
:1002500090E090936D0080936C0084E490E0909324
:100260006F0080936E0083E490E090937100809320
:10027000700081E390E0909373008093720000001F
:1002800000000F90DF91CF910895CF93DF931F92DD
:10029000CDB7DEB789838981882319F484E690E09D
:1002A00008C08981813019F48CE690E002C080E0BA
:1002B00090E00F90DF91CF910895CF93DF931F923D
:1002C000CDB7DEB789838981882F90E0880F991F89
:1002D000805A9F4F0F90DF91CF910895CF93DF9376
:1002E00000D000D0CDB7DEB78B836C838B810E94AA
:1002F00045019A83898389819A81FC01808191815A
:1003000029813A81F90120813181F90130812C81E3
:10031000232BFC01208300000F900F900F900F9073
:10032000DF91CF910895CF93DF9300D000D000D01C
:10033000CDB7DEB78D836E838D810E9445019A8390
:1003400089838D810E945D019C838B838E818823AC
:10035000B1F489819A81FC018081918129813A815E
:10036000F90120813181F9012081422F2B813C81CB
:10037000F901208120952423FC01208312C08E8165
:10038000813079F489819A81FC0180819181298170
:100390003A81F90120813181F90120812360FC013A
:1003A0002083000026960FB6F894DEBF0FBECDBFA7
:1003B000DF91CF910895CF93DF9300D000D0CDB7D8
:1003C000DEB78B836C838B810E945D019A83898366
:1003D0008B81882331F48C81882319F08C818630BD
:1003E00048F08B81813069F48C81813250F08C81AE
:1003F000893238F48C81282F2F7089819A81FC01F1
:10040000208300000F900F900F900F90DF91CF91FD
:100410000895CF93DF9300D000D0CDB7DEB78B83A4
:100420006C838B810E9445019A8389838C81882308
:10043000F1F08C818536D8F489819A81FC01448160
:1004400055818C81282F30E06FEF629FC001639F40
:10045000900D112496958795969587959C01ABE70D
:10046000B4E10E94830396958795FA0180830F90EB
:100470000F900F900F90DF91CF910895CF93DF935E
:1004800000D000D01F92CDB7DEB78D838D810E9442
:1004900045019A8389838D810E945D019C838B83B2
:1004A00089819A81FC018681978129813A81F901AC
:1004B00026813781F9012081622F2B813C81F9014E
:1004C0002181422F50E021E030E0042E02C0220FB3
:1004D000331F0A94E2F7262BFC01208300000F90C3
:1004E0000F900F900F900F90DF91CF9108952FD024
:1004F00008F481E0089557D088F09F5790F0B92F05
:100500009927B751A0F0D1F0660F771F881F991F68
:100510001AF0BA95C9F712C0B13081F05ED0B1E0DF
:1005200008955BC0672F782F8827B85F39F0B93FEF
:10053000CCF3869577956795B395D9F73EF490956A
:100540008095709561957F4F8F4F9F4F0895990FBC
:100550000008550FAA0BE0E8FEEF16161706E8078D
:10056000F907C0F012161306E407F50798F0621BAE
:10057000730B840B950B39F40A2661F0232B242B83
:10058000252B21F408950A2609F4A140A6958FEFA2
:10059000811D811D089557FD9058440F551F59F036
:1005A0005F3F71F04795880F97FB991F61F09F3F60
:1005B00079F087950895121613061406551FF2CF89
:1005C0004695F1DF08C0161617061806991FF1CFD9
:1005D00086957105610508940895E894BB27662700
:1005E0007727CB0197F90895B2DF08F48FEF0895CC
:1005F0000BD078C069D028F06ED018F0952309F0A0
:100600005AC05FC01124EACFC6DFA0F3959FD1F393
:10061000950F50E0551F629FF001729FBB27F00DB0
:10062000B11D639FAA27F00DB11DAA1F649F662705
:10063000B00DA11D661F829F2227B00DA11D621F54
:10064000739FB00DA11D621F839FA00D611D221F0E
:10065000749F3327A00D611D231F849F600D211DF2
:10066000822F762F6A2F11249F5750408AF0E1F095
:1006700088234AF0EE0FFF1FBB1F661F771F881FDE
:1006800091505040A9F79E3F510570F014C0A6CF7D
:100690005F3FECF3983EDCF3869577956795B795C9
:1006A000F795E7959F5FC1F7FE2B880F911D9695F3
:1006B000879597F9089597F99F6780E870E060E063
:1006C00008959FEF80EC089500240A9416161706EB
:1006D00018060906089500240A9412161306140633
:1006E00005060895092E0394000C11F4882352F096
:1006F000BB0F40F4BF2B11F460FF04C06F5F7F4F4E
:100700008F4F9F4F0895A29FB001B39FC001A39F39
:10071000700D811D1124911DB29F700D811D11243A
:08072000911D0895F894FFCF2C
:0407280001032107A1
:00000001FF
